:1000000012C021C020C01FC01EC01DC01CC01BC00C
:100010001AC019C018C017C016C015C014C013C02C
:1000200012C011C010C011241FBECFE5D4E0DEBF46
:10003000CDBF20E0A0E6B0E001C01D92A036B2071F
:10004000E1F732D048C0DCCF87B3896087BBC09866
:100050000895A09815BA989B0CC0C09AFC01238102
:1000600030E03BBD2ABD828190E099BD88BDC39838
:100070000895C098FC01218130E03BBD2ABD8081FC
:1000800090E099BD88BDC39A08958FB5826A8FBDEF
:100090008EB589618EBD1DBC1CBC8FEF90E097BDF5
:1000A00086BDB99ABA9A0895CF93DF9300D000D055
:1000B000CDB7DEB78BE0898389E18A8389E48B83BE
:1000C00088E78C83CE010196E0DFBEDF7894CE0115
:0A00D0000196BFDFFCCFF894FFCFCC
:00000001FF
