S01A0000456D657267656E63795F627265616B696E672E73726563C9
S11300000C9434000C943E000C943E000C943E007E
S11300100C943E000C943E000C943E000C943E0064
S11300200C943E000C943E000C943E000C943E0054
S11300300C943E000C943E000C943E000C943E0044
S11300400C943E000C943E000C943E000C943E0034
S11300500C943E000C943E000C943E000C943E0024
S11300600C943E000C943E0011241FBECFEFD8E048
S1130070DEBFCDBF0E9476000C948D000C9400006E
S113008084B1876084B985B1887F85B98AB1806C71
S11300908AB98BB18BB9089538984098F894309BFD
S11300A002C0289A01C028987894089580EF80931C
S11300B0800081E080938100E4E8F0E08081918118
S11300C091838083E6E8F0E080819181806591836B
S11300D0808380E590E090938900809388008FEF7F
S11300E090E090938B0080938A000895CF93DF93E0
S11300F000D000D0CDB7DEB719821A828FEF8B8380
S113010084E68C83CE0101960E9456000E94400032
S1110110CE0101960E944C00FBCFF894FFCF65
S9030000FC
