:100000000C9434000C9449000C9449000C94490061
:100010000C9449000C9449000C9449000C9449003C
:100020000C9449000C9449000C9449000C9449002C
:100030000C9449000C9449000C9449000C9449001C
:100040000C9449000C9449000C9449000C9449000C
:100050000C9449000C9449000C9449000C944900FC
:100060000C9449000C94490011241FBECFEFD8E036
:10007000DEBFCDBF11E0A0E0B1E0EEEAF2E002C0E9
:1000800005900D92A831B107D9F70E9422010C9476
:1000900055010C94000084B1876084B928988FEFD3
:1000A0008AB91BB8089538984098309B0EC0289A9A
:1000B0008EE490E0909389008093880088E990E036
:1000C00090938B0080938A0008952898109289005D
:1000D0001092880010928B0010928A000895E0E838
:1000E000F0E08081826A8083E1E8F0E080818161D4
:1000F0008083109285001092840080E491E09093B8
:1001000087008093860010928900109288001092D8
:100110008B0010928A0008955A9AE7ECF0E031972C
:10012000F1F700C000009BB197789BB99BB1880F95
:10013000880F880F892B8BB95A9887EC90E001972C
:10014000F1F700C000000895CF93C82F611102C0DD
:10015000599801C0599A8C2F82958F700E948C00FB
:100160008C2F0E948C00CF91089561E00E94A40022
:1001700008958FE59AEE0197F1F700C0000083E043
:100180000E948C008FE79EE30197F1F700C000000A
:1001900083E00E948C008FE891E00197F1F700C0A6
:1001A000000083E00E948C008FE99FE00197F1F747
:1001B00000C0000082E00E948C008FE99FE0019760
:1001C000F1F700C0000060E088E20E94A4008FE91F
:1001D0009FE00197F1F700C0000060E08CE00E9412
:1001E000A4008FE99FE00197F1F700C0000060E0F4
:1001F00086E00E94A4008FE99FE00197F1F700C01C
:100200000000089560E081E00E94A4008FE697E17D
:100210000197F1F700C0000008951F93CF93DF937B
:10022000EC018881882351F010E00E94B5001F5F27
:10023000FE01E10FF11D80818111F7CFDF91CF9198
:100240001F910895CF93DF9300D000D0CDB7DEB7D4
:1002500019821A828FEF8B838C837894CE0101965A
:100260000E946F000E944B000E94B9000E94020190
:1002700060E080E80E94A40080E091E00E940D010F
:1002800060E089E80E94A40089E091E00E940D01ED
:1002900060E080EC0E94A40080E191E00E940D01EA
:0E02A000CE0101960E945300FBCFF894FFCFD1
:1002AE00563A2031332E375600493A203235410026
:0802BE00573A203335570000C8
:00000001FF
